:1000000000308A0020280000713083168F00900194
:100010000F080030860003170908C0398900031350
:100020001F129F12013003178800831203131F173A
:100030009F1383169F1383121F148A110A123528E7
:1000400003081F398300831603170908C039890084
:1000500003131F129F1200300317880083128701B9
:10006000880189018313031304280030F8001F0856
:10007000C33978049F009F149F183C281E08A000D5
:1000800020081C3C031C4928831686018312860124
:1000900094282008383C031C53288316860101301D
:1000A0008312860094282008543C031C5D28831684
:1000B000860103308312860094282008703C031CBC
:1000C000672883168601073083128600942820084B
:1000D0008C3C031C7128831686010F308312860026
:1000E00094282008A83C031C7B28831686011F3017
:1000F0008312860094282008C43C031C852883169C
:1001000086013F308312860094282008FC3C031CA3
:100110008F28831686017F308312860094288316E9
:0C0120008601FF30831286003528630042
:04400E00E22FFF3F5F
:00000001FF
;PIC16F887
;CRC=6B31  CREATED="24-feb.-22 12:20"
