:1000000000308A000428000003081F39830083168B
:1000100003170908C039890003131F129F1200300B
:1000200003178800831287018801890183137130C7
:10003000831603138F0090010F080030860003170A
:100040000908C039890003131F129F1201300317DA
:100050008800831203131F179F1383169F138312A5
:100060001F140030F8001F08C33978049F009F1444
:100070009F1838281E08A00020081C3C031C452897
:10008000831686018312860190282008383C031CC1
:100090004F2883168601013083128600902820089D
:1000A000543C031C592883168601033083128600B2
:1000B00090282008703C031C6328831686010730B3
:1000C00083128600902820088C3C031C6D28831620
:1000D00086010F308312860090282008A83C031C5C
:1000E0007728831686011F30831286009028200807
:1000F000C43C031C8128831686013F30831286008E
:1001000090282008FC3C031C8B28831686017F3036
:1001100083128600902883168601FF3083128600A2
:04012000312863001F
:04400E00E22FFF3F5F
:00000001FF
;PIC16F887
;CRC=476D  CREATED="29-ago.-23 14:53"
