:1000000000308A000428000003081F39830083168B
:100010001F149F141F159F1107309C00831300307D
:1000200086001F109F141F159F151F1383121F1783
:100030009F1383169F1383121F140030F8001F08AC
:10004000C73978049F001F151F1924281E08A00017
:1000500020081C3C031C312883168601831286016C
:100060007C282008383C031C3B288316860101307D
:10007000831286007C282008543C031C45288316E4
:1000800086010330831286007C282008703C031C04
:100090004F28831686010730831286007C282008AB
:1000A0008C3C031C5928831686010F30831286006E
:1000B0007C282008A83C031C6328831686011F3077
:1000C000831286007C282008C43C031C6D288316FC
:1000D00086013F30831286007C282008FC3C031CEC
:1000E0007728831686017F30831286007C2883164A
:0C00F0008601FF30831286001D2863008B
:02400E00723FFF
:00000001FF
;PIC16F877A
;CRC=265F  CREATED="29-ago.-23 14:48"
