:1000000000308A00162800000030831686001F107A
:100010009F141F159F151F1383121F179F138316FD
:100020009F1383121F148A110A12232803081F39F1
:10003000830083161F149F141F159F1107309C0007
:100040008313831204280030F8001F08C73978048E
:100050009F001F151F192A281E08A00020081C3CFD
:10006000031C372883168601831286018228200804
:10007000383C031C41288316860101308312860018
:1000800082282008543C031C4B2883168601033029
:100090008312860082282008703C031C5528831692
:1000A0008601073083128600822820088C3C031CBE
:1000B0005F28831686010F3083128600822820086D
:1000C000A83C031C6928831686011F308312860012
:1000D00082282008C43C031C7328831686013F3005
:1000E0008312860082282008FC3C031C7D2883168E
:1000F00086017F3083128600822883168601FF30B6
:0801000083128600232863002E
:02400E00723FFF
:00000001FF
;PIC16F877A
;CRC=302C  CREATED="24-feb.-22 16:30"
